{
  "_format": "hh-sol-artifact-1",
  "contractName": "FarmChainRegistry",
  "sourceName": "contracts/FarmChainRegistry.sol",
  "abi": [
    {
      "inputs": [],
      "stateMutability": "nonpayable",
      "type": "constructor"
    },
    {
      "inputs": [],
      "name": "AccessControlBadConfirmation",
      "type": "error"
    },
    {
      "inputs": [
        {
          "internalType": "address",
          "name": "account",
          "type": "address"
        },
        {
          "internalType": "bytes32",
          "name": "neededRole",
          "type": "bytes32"
        }
      ],
      "name": "AccessControlUnauthorizedAccount",
      "type": "error"
    },
    {
      "anonymous": false,
      "inputs": [
        {
          "indexed": true,
          "internalType": "address",
          "name": "walletAddress",
          "type": "address"
        },
        {
          "indexed": false,
          "internalType": "enum FarmChainRegistry.Role",
          "name": "role",
          "type": "uint8"
        },
        {
          "indexed": false,
          "internalType": "bytes32",
          "name": "locationHash",
          "type": "bytes32"
        }
      ],
      "name": "ParticipantRegistered",
      "type": "event"
    },
    {
      "anonymous": false,
      "inputs": [
        {
          "indexed": true,
          "internalType": "address",
          "name": "walletAddress",
          "type": "address"
        }
      ],
      "name": "ParticipantVerified",
      "type": "event"
    },
    {
      "anonymous": false,
      "inputs": [
        {
          "indexed": true,
          "internalType": "bytes32",
          "name": "role",
          "type": "bytes32"
        },
        {
          "indexed": true,
          "internalType": "bytes32",
          "name": "previousAdminRole",
          "type": "bytes32"
        },
        {
          "indexed": true,
          "internalType": "bytes32",
          "name": "newAdminRole",
          "type": "bytes32"
        }
      ],
      "name": "RoleAdminChanged",
      "type": "event"
    },
    {
      "anonymous": false,
      "inputs": [
        {
          "indexed": true,
          "internalType": "bytes32",
          "name": "role",
          "type": "bytes32"
        },
        {
          "indexed": true,
          "internalType": "address",
          "name": "account",
          "type": "address"
        },
        {
          "indexed": true,
          "internalType": "address",
          "name": "sender",
          "type": "address"
        }
      ],
      "name": "RoleGranted",
      "type": "event"
    },
    {
      "anonymous": false,
      "inputs": [
        {
          "indexed": true,
          "internalType": "bytes32",
          "name": "role",
          "type": "bytes32"
        },
        {
          "indexed": true,
          "internalType": "address",
          "name": "account",
          "type": "address"
        },
        {
          "indexed": true,
          "internalType": "address",
          "name": "sender",
          "type": "address"
        }
      ],
      "name": "RoleRevoked",
      "type": "event"
    },
    {
      "inputs": [],
      "name": "DEFAULT_ADMIN_ROLE",
      "outputs": [
        {
          "internalType": "bytes32",
          "name": "",
          "type": "bytes32"
        }
      ],
      "stateMutability": "view",
      "type": "function"
    },
    {
      "inputs": [],
      "name": "VERIFIER_ROLE",
      "outputs": [
        {
          "internalType": "bytes32",
          "name": "",
          "type": "bytes32"
        }
      ],
      "stateMutability": "view",
      "type": "function"
    },
    {
      "inputs": [
        {
          "internalType": "address",
          "name": "_address",
          "type": "address"
        }
      ],
      "name": "getParticipantRole",
      "outputs": [
        {
          "internalType": "enum FarmChainRegistry.Role",
          "name": "",
          "type": "uint8"
        }
      ],
      "stateMutability": "view",
      "type": "function"
    },
    {
      "inputs": [
        {
          "internalType": "bytes32",
          "name": "role",
          "type": "bytes32"
        }
      ],
      "name": "getRoleAdmin",
      "outputs": [
        {
          "internalType": "bytes32",
          "name": "",
          "type": "bytes32"
        }
      ],
      "stateMutability": "view",
      "type": "function"
    },
    {
      "inputs": [
        {
          "internalType": "bytes32",
          "name": "role",
          "type": "bytes32"
        },
        {
          "internalType": "address",
          "name": "account",
          "type": "address"
        }
      ],
      "name": "grantRole",
      "outputs": [],
      "stateMutability": "nonpayable",
      "type": "function"
    },
    {
      "inputs": [
        {
          "internalType": "bytes32",
          "name": "role",
          "type": "bytes32"
        },
        {
          "internalType": "address",
          "name": "account",
          "type": "address"
        }
      ],
      "name": "hasRole",
      "outputs": [
        {
          "internalType": "bool",
          "name": "",
          "type": "bool"
        }
      ],
      "stateMutability": "view",
      "type": "function"
    },
    {
      "inputs": [
        {
          "internalType": "address",
          "name": "",
          "type": "address"
        }
      ],
      "name": "isRegistered",
      "outputs": [
        {
          "internalType": "bool",
          "name": "",
          "type": "bool"
        }
      ],
      "stateMutability": "view",
      "type": "function"
    },
    {
      "inputs": [
        {
          "internalType": "address",
          "name": "_address",
          "type": "address"
        }
      ],
      "name": "isVerifiedParticipant",
      "outputs": [
        {
          "internalType": "bool",
          "name": "",
          "type": "bool"
        }
      ],
      "stateMutability": "view",
      "type": "function"
    },
    {
      "inputs": [
        {
          "internalType": "address",
          "name": "",
          "type": "address"
        }
      ],
      "name": "participants",
      "outputs": [
        {
          "internalType": "address",
          "name": "walletAddress",
          "type": "address"
        },
        {
          "internalType": "enum FarmChainRegistry.Role",
          "name": "role",
          "type": "uint8"
        },
        {
          "internalType": "bytes32",
          "name": "locationHash",
          "type": "bytes32"
        },
        {
          "internalType": "bool",
          "name": "isVerified",
          "type": "bool"
        }
      ],
      "stateMutability": "view",
      "type": "function"
    },
    {
      "inputs": [
        {
          "internalType": "address",
          "name": "_walletAddress",
          "type": "address"
        },
        {
          "internalType": "enum FarmChainRegistry.Role",
          "name": "_role",
          "type": "uint8"
        },
        {
          "internalType": "bytes32",
          "name": "_locationHash",
          "type": "bytes32"
        }
      ],
      "name": "registerParticipant",
      "outputs": [],
      "stateMutability": "nonpayable",
      "type": "function"
    },
    {
      "inputs": [
        {
          "internalType": "bytes32",
          "name": "role",
          "type": "bytes32"
        },
        {
          "internalType": "address",
          "name": "callerConfirmation",
          "type": "address"
        }
      ],
      "name": "renounceRole",
      "outputs": [],
      "stateMutability": "nonpayable",
      "type": "function"
    },
    {
      "inputs": [
        {
          "internalType": "bytes32",
          "name": "role",
          "type": "bytes32"
        },
        {
          "internalType": "address",
          "name": "account",
          "type": "address"
        }
      ],
      "name": "revokeRole",
      "outputs": [],
      "stateMutability": "nonpayable",
      "type": "function"
    },
    {
      "inputs": [
        {
          "internalType": "bytes4",
          "name": "interfaceId",
          "type": "bytes4"
        }
      ],
      "name": "supportsInterface",
      "outputs": [
        {
          "internalType": "bool",
          "name": "",
          "type": "bool"
        }
      ],
      "stateMutability": "view",
      "type": "function"
    },
    {
      "inputs": [
        {
          "internalType": "address",
          "name": "_walletAddress",
          "type": "address"
        }
      ],
      "name": "verifyParticipant",
      "outputs": [],
      "stateMutability": "nonpayable",
      "type": "function"
    }
  ],
  "bytecode": "0x608060405234801561000f575f5ffd5b506100225f5f1b3361005960201b60201c565b506100537f0ce23c3e399818cfee81a7ab0880f714e53d7672b08df0fa62f2843416e1ea093361005960201b60201c565b506101b8565b5f61006a838361014e60201b60201c565b6101445760015f5f8581526020019081526020015f205f015f8473ffffffffffffffffffffffffffffffffffffffff1673ffffffffffffffffffffffffffffffffffffffff1681526020019081526020015f205f6101000a81548160ff0219169083151502179055506100e16101b160201b60201c565b73ffffffffffffffffffffffffffffffffffffffff168273ffffffffffffffffffffffffffffffffffffffff16847f2f8788117e7eff1d82e926ec794901d17c78024a50270940304540a733656f0d60405160405180910390a460019050610148565b5f90505b92915050565b5f5f5f8481526020019081526020015f205f015f8373ffffffffffffffffffffffffffffffffffffffff1673ffffffffffffffffffffffffffffffffffffffff1681526020019081526020015f205f9054906101000a900460ff16905092915050565b5f33905090565b611369806101c55f395ff3fe608060405234801561000f575f5ffd5b50600436106100e8575f3560e01c80635cf5a0581161008a578063a217fddf11610064578063a217fddf1461027f578063c3c5a5471461029d578063d547741f146102cd578063e7705db6146102e9576100e8565b80635cf5a05814610203578063643a76951461023357806391d148541461024f576100e8565b8063248a9ca3116100c6578063248a9ca31461016b57806326e0a7e81461019b5780632f2ff15d146101cb57806336568abe146101e7576100e8565b806301ffc9a7146100ec57806309e69ede1461011c5780631d7a83e51461014f575b5f5ffd5b61010660048036038101906101019190610e33565b610307565b6040516101139190610e78565b60405180910390f35b61013660048036038101906101319190610eeb565b610380565b6040516101469493929190610fb0565b60405180910390f35b61016960048036038101906101649190611040565b6103e3565b005b61018560048036038101906101809190611090565b61064b565b60405161019291906110bb565b60405180910390f35b6101b560048036038101906101b09190610eeb565b610667565b6040516101c29190610e78565b60405180910390f35b6101e560048036038101906101e091906110d4565b61070e565b005b61020160048036038101906101fc91906110d4565b610730565b005b61021d60048036038101906102189190610eeb565b6107ab565b60405161022a9190611112565b60405180910390f35b61024d60048036038101906102489190610eeb565b610889565b005b610269600480360381019061026491906110d4565b610a67565b6040516102769190610e78565b60405180910390f35b610287610aca565b60405161029491906110bb565b60405180910390f35b6102b760048036038101906102b29190610eeb565b610ad0565b6040516102c49190610e78565b60405180910390f35b6102e760048036038101906102e291906110d4565b610aed565b005b6102f1610b0f565b6040516102fe91906110bb565b60405180910390f35b5f7f7965db0b000000000000000000000000000000000000000000000000000000007bffffffffffffffffffffffffffffffffffffffffffffffffffffffff1916827bffffffffffffffffffffffffffffffffffffffffffffffffffffffff19161480610379575061037882610b33565b5b9050919050565b6001602052805f5260405f205f91509050805f015f9054906101000a900473ffffffffffffffffffffffffffffffffffffffff1690805f0160149054906101000a900460ff1690806001015490806002015f9054906101000a900460ff16905084565b5f5f1b6103ef81610b9c565b60025f8573ffffffffffffffffffffffffffffffffffffffff1673ffffffffffffffffffffffffffffffffffffffff1681526020019081526020015f205f9054906101000a900460ff1615610479576040517f08c379a0000000000000000000000000000000000000000000000000000000008152600401610470906111ab565b60405180910390fd5b60405180608001604052808573ffffffffffffffffffffffffffffffffffffffff1681526020018460038111156104b3576104b2610f25565b5b81526020018381526020015f151581525060015f8673ffffffffffffffffffffffffffffffffffffffff1673ffffffffffffffffffffffffffffffffffffffff1681526020019081526020015f205f820151815f015f6101000a81548173ffffffffffffffffffffffffffffffffffffffff021916908373ffffffffffffffffffffffffffffffffffffffff1602179055506020820151815f0160146101000a81548160ff0219169083600381111561056f5761056e610f25565b5b0217905550604082015181600101556060820151816002015f6101000a81548160ff021916908315150217905550905050600160025f8673ffffffffffffffffffffffffffffffffffffffff1673ffffffffffffffffffffffffffffffffffffffff1681526020019081526020015f205f6101000a81548160ff0219169083151502179055508373ffffffffffffffffffffffffffffffffffffffff167fad47e7a0710250e07cdca8b9bd49a13c2f451a48fe946660b2ab36d69ec7e1bc848460405161063d9291906111c9565b60405180910390a250505050565b5f5f5f8381526020019081526020015f20600101549050919050565b5f60025f8373ffffffffffffffffffffffffffffffffffffffff1673ffffffffffffffffffffffffffffffffffffffff1681526020019081526020015f205f9054906101000a900460ff168015610707575060015f8373ffffffffffffffffffffffffffffffffffffffff1673ffffffffffffffffffffffffffffffffffffffff1681526020019081526020015f206002015f9054906101000a900460ff165b9050919050565b6107178261064b565b61072081610b9c565b61072a8383610bb0565b50505050565b610738610c99565b73ffffffffffffffffffffffffffffffffffffffff168173ffffffffffffffffffffffffffffffffffffffff161461079c576040517f6697b23200000000000000000000000000000000000000000000000000000000815260040160405180910390fd5b6107a68282610ca0565b505050565b5f60025f8373ffffffffffffffffffffffffffffffffffffffff1673ffffffffffffffffffffffffffffffffffffffff1681526020019081526020015f205f9054906101000a900460ff16610835576040517f08c379a000000000000000000000000000000000000000000000000000000000815260040161082c90611260565b60405180910390fd5b60015f8373ffffffffffffffffffffffffffffffffffffffff1673ffffffffffffffffffffffffffffffffffffffff1681526020019081526020015f205f0160149054906101000a900460ff169050919050565b7f0ce23c3e399818cfee81a7ab0880f714e53d7672b08df0fa62f2843416e1ea096108b381610b9c565b60025f8373ffffffffffffffffffffffffffffffffffffffff1673ffffffffffffffffffffffffffffffffffffffff1681526020019081526020015f205f9054906101000a900460ff1661093c576040517f08c379a000000000000000000000000000000000000000000000000000000000815260040161093390611260565b60405180910390fd5b60015f8373ffffffffffffffffffffffffffffffffffffffff1673ffffffffffffffffffffffffffffffffffffffff1681526020019081526020015f206002015f9054906101000a900460ff16156109c9576040517f08c379a00000000000000000000000000000000000000000000000000000000081526004016109c0906112ee565b60405180910390fd5b6001805f8473ffffffffffffffffffffffffffffffffffffffff1673ffffffffffffffffffffffffffffffffffffffff1681526020019081526020015f206002015f6101000a81548160ff0219169083151502179055508173ffffffffffffffffffffffffffffffffffffffff167fbb5006a60fdc89afdf583611f1f18d2b61de8bc75a34fe7e60dcdb13ea87d77d60405160405180910390a25050565b5f5f5f8481526020019081526020015f205f015f8373ffffffffffffffffffffffffffffffffffffffff1673ffffffffffffffffffffffffffffffffffffffff1681526020019081526020015f205f9054906101000a900460ff16905092915050565b5f5f1b81565b6002602052805f5260405f205f915054906101000a900460ff1681565b610af68261064b565b610aff81610b9c565b610b098383610ca0565b50505050565b7f0ce23c3e399818cfee81a7ab0880f714e53d7672b08df0fa62f2843416e1ea0981565b5f7f01ffc9a7000000000000000000000000000000000000000000000000000000007bffffffffffffffffffffffffffffffffffffffffffffffffffffffff1916827bffffffffffffffffffffffffffffffffffffffffffffffffffffffff1916149050919050565b610bad81610ba8610c99565b610d89565b50565b5f610bbb8383610a67565b610c8f5760015f5f8581526020019081526020015f205f015f8473ffffffffffffffffffffffffffffffffffffffff1673ffffffffffffffffffffffffffffffffffffffff1681526020019081526020015f205f6101000a81548160ff021916908315150217905550610c2c610c99565b73ffffffffffffffffffffffffffffffffffffffff168273ffffffffffffffffffffffffffffffffffffffff16847f2f8788117e7eff1d82e926ec794901d17c78024a50270940304540a733656f0d60405160405180910390a460019050610c93565b5f90505b92915050565b5f33905090565b5f610cab8383610a67565b15610d7f575f5f5f8581526020019081526020015f205f015f8473ffffffffffffffffffffffffffffffffffffffff1673ffffffffffffffffffffffffffffffffffffffff1681526020019081526020015f205f6101000a81548160ff021916908315150217905550610d1c610c99565b73ffffffffffffffffffffffffffffffffffffffff168273ffffffffffffffffffffffffffffffffffffffff16847ff6391f5c32d9c69d2a47ea670b442974b53935d1edc7fd64eb21e047a839171b60405160405180910390a460019050610d83565b5f90505b92915050565b610d938282610a67565b610dd65780826040517fe2517d3f000000000000000000000000000000000000000000000000000000008152600401610dcd92919061130c565b60405180910390fd5b5050565b5f5ffd5b5f7fffffffff0000000000000000000000000000000000000000000000000000000082169050919050565b610e1281610dde565b8114610e1c575f5ffd5b50565b5f81359050610e2d81610e09565b92915050565b5f60208284031215610e4857610e47610dda565b5b5f610e5584828501610e1f565b91505092915050565b5f8115159050919050565b610e7281610e5e565b82525050565b5f602082019050610e8b5f830184610e69565b92915050565b5f73ffffffffffffffffffffffffffffffffffffffff82169050919050565b5f610eba82610e91565b9050919050565b610eca81610eb0565b8114610ed4575f5ffd5b50565b5f81359050610ee581610ec1565b92915050565b5f60208284031215610f0057610eff610dda565b5b5f610f0d84828501610ed7565b91505092915050565b610f1f81610eb0565b82525050565b7f4e487b71000000000000000000000000000000000000000000000000000000005f52602160045260245ffd5b60048110610f6357610f62610f25565b5b50565b5f819050610f7382610f52565b919050565b5f610f8282610f66565b9050919050565b610f9281610f78565b82525050565b5f819050919050565b610faa81610f98565b82525050565b5f608082019050610fc35f830187610f16565b610fd06020830186610f89565b610fdd6040830185610fa1565b610fea6060830184610e69565b95945050505050565b60048110610fff575f5ffd5b50565b5f8135905061101081610ff3565b92915050565b61101f81610f98565b8114611029575f5ffd5b50565b5f8135905061103a81611016565b92915050565b5f5f5f6060848603121561105757611056610dda565b5b5f61106486828701610ed7565b935050602061107586828701611002565b92505060406110868682870161102c565b9150509250925092565b5f602082840312156110a5576110a4610dda565b5b5f6110b28482850161102c565b91505092915050565b5f6020820190506110ce5f830184610fa1565b92915050565b5f5f604083850312156110ea576110e9610dda565b5b5f6110f78582860161102c565b925050602061110885828601610ed7565b9150509250929050565b5f6020820190506111255f830184610f89565b92915050565b5f82825260208201905092915050565b7f4661726d436861696e52656769737472793a205061727469636970616e7420615f8201527f6c72656164792072656769737465726564000000000000000000000000000000602082015250565b5f61119560318361112b565b91506111a08261113b565b604082019050919050565b5f6020820190508181035f8301526111c281611189565b9050919050565b5f6040820190506111dc5f830185610f89565b6111e96020830184610fa1565b9392505050565b7f4661726d436861696e52656769737472793a205061727469636970616e74206e5f8201527f6f74207265676973746572656400000000000000000000000000000000000000602082015250565b5f61124a602d8361112b565b9150611255826111f0565b604082019050919050565b5f6020820190508181035f8301526112778161123e565b9050919050565b7f4661726d436861696e52656769737472793a20416c72656164792076657269665f8201527f6965640000000000000000000000000000000000000000000000000000000000602082015250565b5f6112d860238361112b565b91506112e38261127e565b604082019050919050565b5f6020820190508181035f830152611305816112cc565b9050919050565b5f60408201905061131f5f830185610f16565b61132c6020830184610fa1565b939250505056fea2646970667358221220378981f3fbc4d84854b4ebe895408a2251156566a967e570e49be8354055e26b64736f6c634300081c0033",
  "linkReferences": {},
  "deployedLinkReferences": {}
}