{
  "_format": "hh-sol-artifact-1",
  "contractName": "ProduceBatch",
  "sourceName": "contracts/ProduceBatch.sol",
  "abi": [
    {
      "inputs": [
        {
          "internalType": "address",
          "name": "_registryAddress",
          "type": "address"
        }
      ],
      "stateMutability": "nonpayable",
      "type": "constructor"
    },
    {
      "inputs": [
        {
          "internalType": "address",
          "name": "sender",
          "type": "address"
        },
        {
          "internalType": "uint256",
          "name": "tokenId",
          "type": "uint256"
        },
        {
          "internalType": "address",
          "name": "owner",
          "type": "address"
        }
      ],
      "name": "ERC721IncorrectOwner",
      "type": "error"
    },
    {
      "inputs": [
        {
          "internalType": "address",
          "name": "operator",
          "type": "address"
        },
        {
          "internalType": "uint256",
          "name": "tokenId",
          "type": "uint256"
        }
      ],
      "name": "ERC721InsufficientApproval",
      "type": "error"
    },
    {
      "inputs": [
        {
          "internalType": "address",
          "name": "approver",
          "type": "address"
        }
      ],
      "name": "ERC721InvalidApprover",
      "type": "error"
    },
    {
      "inputs": [
        {
          "internalType": "address",
          "name": "operator",
          "type": "address"
        }
      ],
      "name": "ERC721InvalidOperator",
      "type": "error"
    },
    {
      "inputs": [
        {
          "internalType": "address",
          "name": "owner",
          "type": "address"
        }
      ],
      "name": "ERC721InvalidOwner",
      "type": "error"
    },
    {
      "inputs": [
        {
          "internalType": "address",
          "name": "receiver",
          "type": "address"
        }
      ],
      "name": "ERC721InvalidReceiver",
      "type": "error"
    },
    {
      "inputs": [
        {
          "internalType": "address",
          "name": "sender",
          "type": "address"
        }
      ],
      "name": "ERC721InvalidSender",
      "type": "error"
    },
    {
      "inputs": [
        {
          "internalType": "uint256",
          "name": "tokenId",
          "type": "uint256"
        }
      ],
      "name": "ERC721NonexistentToken",
      "type": "error"
    },
    {
      "anonymous": false,
      "inputs": [
        {
          "indexed": true,
          "internalType": "address",
          "name": "owner",
          "type": "address"
        },
        {
          "indexed": true,
          "internalType": "address",
          "name": "approved",
          "type": "address"
        },
        {
          "indexed": true,
          "internalType": "uint256",
          "name": "tokenId",
          "type": "uint256"
        }
      ],
      "name": "Approval",
      "type": "event"
    },
    {
      "anonymous": false,
      "inputs": [
        {
          "indexed": true,
          "internalType": "address",
          "name": "owner",
          "type": "address"
        },
        {
          "indexed": true,
          "internalType": "address",
          "name": "operator",
          "type": "address"
        },
        {
          "indexed": false,
          "internalType": "bool",
          "name": "approved",
          "type": "bool"
        }
      ],
      "name": "ApprovalForAll",
      "type": "event"
    },
    {
      "anonymous": false,
      "inputs": [
        {
          "indexed": true,
          "internalType": "uint256",
          "name": "batchId",
          "type": "uint256"
        },
        {
          "indexed": true,
          "internalType": "address",
          "name": "initialOwner",
          "type": "address"
        }
      ],
      "name": "BatchMinted",
      "type": "event"
    },
    {
      "anonymous": false,
      "inputs": [
        {
          "indexed": true,
          "internalType": "uint256",
          "name": "batchId",
          "type": "uint256"
        },
        {
          "indexed": true,
          "internalType": "address",
          "name": "newOwner",
          "type": "address"
        },
        {
          "indexed": false,
          "internalType": "uint256",
          "name": "timestamp",
          "type": "uint256"
        }
      ],
      "name": "CustodyAccepted",
      "type": "event"
    },
    {
      "anonymous": false,
      "inputs": [
        {
          "indexed": true,
          "internalType": "uint256",
          "name": "batchId",
          "type": "uint256"
        },
        {
          "indexed": true,
          "internalType": "address",
          "name": "sender",
          "type": "address"
        },
        {
          "indexed": true,
          "internalType": "address",
          "name": "receiver",
          "type": "address"
        }
      ],
      "name": "CustodyTransferInitiated",
      "type": "event"
    },
    {
      "anonymous": false,
      "inputs": [
        {
          "indexed": true,
          "internalType": "address",
          "name": "from",
          "type": "address"
        },
        {
          "indexed": true,
          "internalType": "address",
          "name": "to",
          "type": "address"
        },
        {
          "indexed": true,
          "internalType": "uint256",
          "name": "tokenId",
          "type": "uint256"
        }
      ],
      "name": "Transfer",
      "type": "event"
    },
    {
      "inputs": [
        {
          "internalType": "uint256",
          "name": "batchId",
          "type": "uint256"
        },
        {
          "internalType": "bytes32",
          "name": "arrivalFRS",
          "type": "bytes32"
        }
      ],
      "name": "acceptCustody",
      "outputs": [],
      "stateMutability": "nonpayable",
      "type": "function"
    },
    {
      "inputs": [
        {
          "internalType": "address",
          "name": "to",
          "type": "address"
        },
        {
          "internalType": "uint256",
          "name": "tokenId",
          "type": "uint256"
        }
      ],
      "name": "approve",
      "outputs": [],
      "stateMutability": "nonpayable",
      "type": "function"
    },
    {
      "inputs": [
        {
          "internalType": "address",
          "name": "owner",
          "type": "address"
        }
      ],
      "name": "balanceOf",
      "outputs": [
        {
          "internalType": "uint256",
          "name": "",
          "type": "uint256"
        }
      ],
      "stateMutability": "view",
      "type": "function"
    },
    {
      "inputs": [
        {
          "internalType": "uint256",
          "name": "",
          "type": "uint256"
        }
      ],
      "name": "batchStates",
      "outputs": [
        {
          "internalType": "enum ProduceBatch.BatchState",
          "name": "",
          "type": "uint8"
        }
      ],
      "stateMutability": "view",
      "type": "function"
    },
    {
      "inputs": [
        {
          "internalType": "uint256",
          "name": "",
          "type": "uint256"
        }
      ],
      "name": "batches",
      "outputs": [
        {
          "internalType": "uint256",
          "name": "batchId",
          "type": "uint256"
        },
        {
          "internalType": "address",
          "name": "currentOwner",
          "type": "address"
        },
        {
          "internalType": "uint256",
          "name": "wOrigin",
          "type": "uint256"
        },
        {
          "internalType": "uint256",
          "name": "nItems",
          "type": "uint256"
        },
        {
          "internalType": "string",
          "name": "produceType",
          "type": "string"
        },
        {
          "internalType": "uint256",
          "name": "harvestDate",
          "type": "uint256"
        }
      ],
      "stateMutability": "view",
      "type": "function"
    },
    {
      "inputs": [
        {
          "internalType": "uint256",
          "name": "tokenId",
          "type": "uint256"
        }
      ],
      "name": "getApproved",
      "outputs": [
        {
          "internalType": "address",
          "name": "",
          "type": "address"
        }
      ],
      "stateMutability": "view",
      "type": "function"
    },
    {
      "inputs": [
        {
          "internalType": "address",
          "name": "owner",
          "type": "address"
        },
        {
          "internalType": "address",
          "name": "operator",
          "type": "address"
        }
      ],
      "name": "isApprovedForAll",
      "outputs": [
        {
          "internalType": "bool",
          "name": "",
          "type": "bool"
        }
      ],
      "stateMutability": "view",
      "type": "function"
    },
    {
      "inputs": [
        {
          "internalType": "uint256",
          "name": "batchId",
          "type": "uint256"
        }
      ],
      "name": "markAsSold",
      "outputs": [],
      "stateMutability": "nonpayable",
      "type": "function"
    },
    {
      "inputs": [
        {
          "internalType": "uint256",
          "name": "_wOrigin",
          "type": "uint256"
        },
        {
          "internalType": "uint256",
          "name": "_nItems",
          "type": "uint256"
        },
        {
          "internalType": "string",
          "name": "_produceType",
          "type": "string"
        }
      ],
      "name": "mintBatch",
      "outputs": [],
      "stateMutability": "nonpayable",
      "type": "function"
    },
    {
      "inputs": [],
      "name": "name",
      "outputs": [
        {
          "internalType": "string",
          "name": "",
          "type": "string"
        }
      ],
      "stateMutability": "view",
      "type": "function"
    },
    {
      "inputs": [
        {
          "internalType": "uint256",
          "name": "tokenId",
          "type": "uint256"
        }
      ],
      "name": "ownerOf",
      "outputs": [
        {
          "internalType": "address",
          "name": "",
          "type": "address"
        }
      ],
      "stateMutability": "view",
      "type": "function"
    },
    {
      "inputs": [
        {
          "internalType": "uint256",
          "name": "",
          "type": "uint256"
        }
      ],
      "name": "pendingReceivers",
      "outputs": [
        {
          "internalType": "address",
          "name": "",
          "type": "address"
        }
      ],
      "stateMutability": "view",
      "type": "function"
    },
    {
      "inputs": [],
      "name": "registry",
      "outputs": [
        {
          "internalType": "contract FarmChainRegistry",
          "name": "",
          "type": "address"
        }
      ],
      "stateMutability": "view",
      "type": "function"
    },
    {
      "inputs": [
        {
          "internalType": "address",
          "name": "from",
          "type": "address"
        },
        {
          "internalType": "address",
          "name": "to",
          "type": "address"
        },
        {
          "internalType": "uint256",
          "name": "tokenId",
          "type": "uint256"
        }
      ],
      "name": "safeTransferFrom",
      "outputs": [],
      "stateMutability": "nonpayable",
      "type": "function"
    },
    {
      "inputs": [
        {
          "internalType": "address",
          "name": "",
          "type": "address"
        },
        {
          "internalType": "address",
          "name": "",
          "type": "address"
        },
        {
          "internalType": "uint256",
          "name": "",
          "type": "uint256"
        },
        {
          "internalType": "bytes",
          "name": "",
          "type": "bytes"
        }
      ],
      "name": "safeTransferFrom",
      "outputs": [],
      "stateMutability": "nonpayable",
      "type": "function"
    },
    {
      "inputs": [
        {
          "internalType": "address",
          "name": "operator",
          "type": "address"
        },
        {
          "internalType": "bool",
          "name": "approved",
          "type": "bool"
        }
      ],
      "name": "setApprovalForAll",
      "outputs": [],
      "stateMutability": "nonpayable",
      "type": "function"
    },
    {
      "inputs": [
        {
          "internalType": "bytes4",
          "name": "interfaceId",
          "type": "bytes4"
        }
      ],
      "name": "supportsInterface",
      "outputs": [
        {
          "internalType": "bool",
          "name": "",
          "type": "bool"
        }
      ],
      "stateMutability": "view",
      "type": "function"
    },
    {
      "inputs": [],
      "name": "symbol",
      "outputs": [
        {
          "internalType": "string",
          "name": "",
          "type": "string"
        }
      ],
      "stateMutability": "view",
      "type": "function"
    },
    {
      "inputs": [
        {
          "internalType": "uint256",
          "name": "tokenId",
          "type": "uint256"
        }
      ],
      "name": "tokenURI",
      "outputs": [
        {
          "internalType": "string",
          "name": "",
          "type": "string"
        }
      ],
      "stateMutability": "view",
      "type": "function"
    },
    {
      "inputs": [
        {
          "internalType": "uint256",
          "name": "batchId",
          "type": "uint256"
        },
        {
          "internalType": "address",
          "name": "receiverAddress",
          "type": "address"
        }
      ],
      "name": "transferCustody",
      "outputs": [],
      "stateMutability": "nonpayable",
      "type": "function"
    },
    {
      "inputs": [
        {
          "internalType": "address",
          "name": "",
          "type": "address"
        },
        {
          "internalType": "address",
          "name": "",
          "type": "address"
        },
        {
          "internalType": "uint256",
          "name": "",
          "type": "uint256"
        }
      ],
      "name": "transferFrom",
      "outputs": [],
      "stateMutability": "nonpayable",
      "type": "function"
    }
  ],
  "bytecode": "0x608060405234801561000f575f5ffd5b50604051613eb6380380613eb6833981810160405281019061003191906101d0565b6040518060400160405280600c81526020017f50726f64756365426174636800000000000000000000000000000000000000008152506040518060400160405280600381526020017f5042540000000000000000000000000000000000000000000000000000000000815250815f90816100ab9190610438565b5080600190816100bb9190610438565b5050505f73ffffffffffffffffffffffffffffffffffffffff168173ffffffffffffffffffffffffffffffffffffffff160361012c576040517f08c379a000000000000000000000000000000000000000000000000000000000815260040161012390610587565b60405180910390fd5b8060065f6101000a81548173ffffffffffffffffffffffffffffffffffffffff021916908373ffffffffffffffffffffffffffffffffffffffff160217905550506105a5565b5f5ffd5b5f73ffffffffffffffffffffffffffffffffffffffff82169050919050565b5f61019f82610176565b9050919050565b6101af81610195565b81146101b9575f5ffd5b50565b5f815190506101ca816101a6565b92915050565b5f602082840312156101e5576101e4610172565b5b5f6101f2848285016101bc565b91505092915050565b5f81519050919050565b7f4e487b71000000000000000000000000000000000000000000000000000000005f52604160045260245ffd5b7f4e487b71000000000000000000000000000000000000000000000000000000005f52602260045260245ffd5b5f600282049050600182168061027657607f821691505b60208210810361028957610288610232565b5b50919050565b5f819050815f5260205f209050919050565b5f6020601f8301049050919050565b5f82821b905092915050565b5f600883026102eb7fffffffffffffffffffffffffffffffffffffffffffffffffffffffffffffffff826102b0565b6102f586836102b0565b95508019841693508086168417925050509392505050565b5f819050919050565b5f819050919050565b5f61033961033461032f8461030d565b610316565b61030d565b9050919050565b5f819050919050565b6103528361031f565b61036661035e82610340565b8484546102bc565b825550505050565b5f5f905090565b61037d61036e565b610388818484610349565b505050565b5b818110156103ab576103a05f82610375565b60018101905061038e565b5050565b601f8211156103f0576103c18161028f565b6103ca846102a1565b810160208510156103d9578190505b6103ed6103e5856102a1565b83018261038d565b50505b505050565b5f82821c905092915050565b5f6104105f19846008026103f5565b1980831691505092915050565b5f6104288383610401565b9150826002028217905092915050565b610441826101fb565b67ffffffffffffffff81111561045a57610459610205565b5b610464825461025f565b61046f8282856103af565b5f60209050601f8311600181146104a0575f841561048e578287015190505b610498858261041d565b8655506104ff565b601f1984166104ae8661028f565b5f5b828110156104d5578489015182556001820191506020850194506020810190506104b0565b868310156104f257848901516104ee601f891682610401565b8355505b6001600288020188555050505b505050505050565b5f82825260208201905092915050565b7f50726f6475636542617463683a20496e76616c696420726567697374727920615f8201527f6464726573730000000000000000000000000000000000000000000000000000602082015250565b5f610571602683610507565b915061057c82610517565b604082019050919050565b5f6020820190508181035f83015261059e81610565565b9050919050565b613904806105b25f395ff3fe608060405234801561000f575f5ffd5b5060043610610135575f3560e01c806370a08231116100b6578063b20a5dbe1161007a578063b20a5dbe14610347578063b32c4d8d14610377578063b88d4fde146103ac578063c87b56dd146103c8578063e985e9c5146103f8578063f561be641461042857610135565b806370a08231146102a35780637b103999146102d3578063815fc9bb146102f157806395d89b411461030d578063a22cb4651461032b57610135565b806323b872dd116100fd57806323b872dd146101ef5780632931a1081461020b57806329aa00251461022757806342842e0e146102575780636352211e1461027357610135565b806301ffc9a71461013957806302eb27c51461016957806306fdde0314610185578063081812fc146101a3578063095ea7b3146101d3575b5f5ffd5b610153600480360381019061014e919061259d565b610444565b60405161016091906125e2565b60405180910390f35b610183600480360381019061017e9190612661565b610525565b005b61018d6108c3565b60405161019a919061270f565b60405180910390f35b6101bd60048036038101906101b8919061272f565b610952565b6040516101ca9190612799565b60405180910390f35b6101ed60048036038101906101e891906127dc565b61096d565b005b6102096004803603810190610204919061281a565b610983565b005b6102256004803603810190610220919061272f565b6109be565b005b610241600480360381019061023c919061272f565b610b6e565b60405161024e9190612799565b60405180910390f35b610271600480360381019061026c919061281a565b610b9e565b005b61028d6004803603810190610288919061272f565b610bbd565b60405161029a9190612799565b60405180910390f35b6102bd60048036038101906102b8919061286a565b610bce565b6040516102ca91906128a4565b60405180910390f35b6102db610c84565b6040516102e89190612918565b60405180910390f35b61030b60048036038101906103069190612931565b610ca9565b005b610315610f28565b604051610322919061270f565b60405180910390f35b61034560048036038101906103409190612999565b610fb8565b005b610361600480360381019061035c919061272f565b610fce565b60405161036e9190612a4a565b60405180910390f35b610391600480360381019061038c919061272f565b610feb565b6040516103a396959493929190612a63565b60405180910390f35b6103c660048036038101906103c19190612bf5565b6110c8565b005b6103e260048036038101906103dd919061272f565b611103565b6040516103ef919061270f565b60405180910390f35b610412600480360381019061040d9190612c75565b611169565b60405161041f91906125e2565b60405180910390f35b610442600480360381019061043d9190612d51565b6111f7565b005b5f7f80ac58cd000000000000000000000000000000000000000000000000000000007bffffffffffffffffffffffffffffffffffffffffffffffffffffffff1916827bffffffffffffffffffffffffffffffffffffffffffffffffffffffff1916148061050e57507f5b5e139f000000000000000000000000000000000000000000000000000000007bffffffffffffffffffffffffffffffffffffffffffffffffffffffff1916827bffffffffffffffffffffffffffffffffffffffffffffffffffffffff1916145b8061051e575061051d826115b9565b5b9050919050565b3373ffffffffffffffffffffffffffffffffffffffff1660095f8481526020019081526020015f205f9054906101000a900473ffffffffffffffffffffffffffffffffffffffff1673ffffffffffffffffffffffffffffffffffffffff16146105c3576040517f08c379a00000000000000000000000000000000000000000000000000000000081526004016105ba90612e2d565b60405180910390fd5b60095f8381526020019081526020015f205f6101000a81549073ffffffffffffffffffffffffffffffffffffffff02191690555f60065f9054906101000a900473ffffffffffffffffffffffffffffffffffffffff1673ffffffffffffffffffffffffffffffffffffffff16635cf5a058336040518263ffffffff1660e01b81526004016106519190612799565b602060405180830381865afa15801561066c573d5f5f3e3d5ffd5b505050506040513d601f19601f820116820180604052508101906106909190612e6e565b9050600160038111156106a6576106a56129d7565b5b8160038111156106b9576106b86129d7565b5b036106fc57600160085f8581526020019081526020015f205f6101000a81548160ff021916908360048111156106f2576106f16129d7565b5b02179055506107cd565b600260038111156107105761070f6129d7565b5b816003811115610723576107226129d7565b5b0361076657600260085f8581526020019081526020015f205f6101000a81548160ff0219169083600481111561075c5761075b6129d7565b5b02179055506107cc565b600380811115610779576107786129d7565b5b81600381111561078c5761078b6129d7565b5b036107cb57600360085f8581526020019081526020015f205f6101000a81548160ff021916908360048111156107c5576107c46129d7565b5b02179055505b5b5b3360075f8581526020019081526020015f206001015f6101000a81548173ffffffffffffffffffffffffffffffffffffffff021916908373ffffffffffffffffffffffffffffffffffffffff16021790555060075f8481526020019081526020015f2060060182908060018154018082558091505060019003905f5260205f20015f90919091909150555f61086184610bbd565b905061086e813386611622565b3373ffffffffffffffffffffffffffffffffffffffff16847f3783f70b0cfaff75044fc00b73a32aa28fb06113e9e0b28e8a2cc2e97f573c32426040516108b591906128a4565b60405180910390a350505050565b60605f80546108d190612ec6565b80601f01602080910402602001604051908101604052809291908181526020018280546108fd90612ec6565b80156109485780601f1061091f57610100808354040283529160200191610948565b820191905f5260205f20905b81548152906001019060200180831161092b57829003601f168201915b5050505050905090565b5f61095c8261178a565b5061096682611810565b9050919050565b61097f828261097a611849565b611850565b5050565b6040517f08c379a00000000000000000000000000000000000000000000000000000000081526004016109b590612f8c565b60405180910390fd5b3373ffffffffffffffffffffffffffffffffffffffff166109de82610bbd565b73ffffffffffffffffffffffffffffffffffffffff1614610a34576040517f08c379a0000000000000000000000000000000000000000000000000000000008152600401610a2b90612ff4565b60405180910390fd5b600380811115610a4757610a466129d7565b5b60065f9054906101000a900473ffffffffffffffffffffffffffffffffffffffff1673ffffffffffffffffffffffffffffffffffffffff16635cf5a058336040518263ffffffff1660e01b8152600401610aa19190612799565b602060405180830381865afa158015610abc573d5f5f3e3d5ffd5b505050506040513d601f19601f82011682018060405250810190610ae09190612e6e565b6003811115610af257610af16129d7565b5b14610b32576040517f08c379a0000000000000000000000000000000000000000000000000000000008152600401610b2990613082565b60405180910390fd5b600460085f8381526020019081526020015f205f6101000a81548160ff02191690836004811115610b6657610b656129d7565b5b021790555050565b6009602052805f5260405f205f915054906101000a900473ffffffffffffffffffffffffffffffffffffffff1681565b610bb883838360405180602001604052805f8152506110c8565b505050565b5f610bc78261178a565b9050919050565b5f5f73ffffffffffffffffffffffffffffffffffffffff168273ffffffffffffffffffffffffffffffffffffffff1603610c3f575f6040517f89c62b64000000000000000000000000000000000000000000000000000000008152600401610c369190612799565b60405180910390fd5b60035f8373ffffffffffffffffffffffffffffffffffffffff1673ffffffffffffffffffffffffffffffffffffffff1681526020019081526020015f20549050919050565b60065f9054906101000a900473ffffffffffffffffffffffffffffffffffffffff1681565b3373ffffffffffffffffffffffffffffffffffffffff16610cc983610bbd565b73ffffffffffffffffffffffffffffffffffffffff1614610d1f576040517f08c379a0000000000000000000000000000000000000000000000000000000008152600401610d1690613110565b60405180910390fd5b60065f9054906101000a900473ffffffffffffffffffffffffffffffffffffffff1673ffffffffffffffffffffffffffffffffffffffff166326e0a7e8826040518263ffffffff1660e01b8152600401610d799190612799565b602060405180830381865afa158015610d94573d5f5f3e3d5ffd5b505050506040513d601f19601f82011682018060405250810190610db89190613142565b610df7576040517f08c379a0000000000000000000000000000000000000000000000000000000008152600401610dee906131dd565b60405180910390fd5b600480811115610e0a57610e096129d7565b5b60085f8481526020019081526020015f205f9054906101000a900460ff166004811115610e3a57610e396129d7565b5b03610e7a576040517f08c379a0000000000000000000000000000000000000000000000000000000008152600401610e7190613245565b60405180910390fd5b8060095f8481526020019081526020015f205f6101000a81548173ffffffffffffffffffffffffffffffffffffffff021916908373ffffffffffffffffffffffffffffffffffffffff1602179055508073ffffffffffffffffffffffffffffffffffffffff163373ffffffffffffffffffffffffffffffffffffffff16837f99bd7e49d39c5869bbabb5b3f071dad09f21e73c013e0df90322777354226f3460405160405180910390a45050565b606060018054610f3790612ec6565b80601f0160208091040260200160405190810160405280929190818152602001828054610f6390612ec6565b8015610fae5780601f10610f8557610100808354040283529160200191610fae565b820191905f5260205f20905b815481529060010190602001808311610f9157829003601f168201915b5050505050905090565b610fca610fc3611849565b8383611862565b5050565b6008602052805f5260405f205f915054906101000a900460ff1681565b6007602052805f5260405f205f91509050805f015490806001015f9054906101000a900473ffffffffffffffffffffffffffffffffffffffff169080600201549080600301549080600401805461104190612ec6565b80601f016020809104026020016040519081016040528092919081815260200182805461106d90612ec6565b80156110b85780601f1061108f576101008083540402835291602001916110b8565b820191905f5260205f20905b81548152906001019060200180831161109b57829003601f168201915b5050505050908060050154905086565b6040517f08c379a00000000000000000000000000000000000000000000000000000000081526004016110fa906132f9565b60405180910390fd5b606061110e8261178a565b505f611118611a3b565b90505f8151116111365760405180602001604052805f815250611161565b8061114084611a51565b604051602001611151929190613351565b6040516020818303038152906040525b915050919050565b5f60055f8473ffffffffffffffffffffffffffffffffffffffff1673ffffffffffffffffffffffffffffffffffffffff1681526020019081526020015f205f8373ffffffffffffffffffffffffffffffffffffffff1673ffffffffffffffffffffffffffffffffffffffff1681526020019081526020015f205f9054906101000a900460ff16905092915050565b60065f9054906101000a900473ffffffffffffffffffffffffffffffffffffffff1673ffffffffffffffffffffffffffffffffffffffff166326e0a7e8336040518263ffffffff1660e01b81526004016112519190612799565b602060405180830381865afa15801561126c573d5f5f3e3d5ffd5b505050506040513d601f19601f820116820180604052508101906112909190613142565b6112cf576040517f08c379a00000000000000000000000000000000000000000000000000000000081526004016112c6906133e4565b60405180910390fd5b5f60038111156112e2576112e16129d7565b5b60065f9054906101000a900473ffffffffffffffffffffffffffffffffffffffff1673ffffffffffffffffffffffffffffffffffffffff16635cf5a058336040518263ffffffff1660e01b815260040161133c9190612799565b602060405180830381865afa158015611357573d5f5f3e3d5ffd5b505050506040513d601f19601f8201168201806040525081019061137b9190612e6e565b600381111561138d5761138c6129d7565b5b146113cd576040517f08c379a00000000000000000000000000000000000000000000000000000000081526004016113c490613472565b60405180910390fd5b5f600a5f81546113dc906134bd565b91905081905590505f5f67ffffffffffffffff8111156113ff576113fe612ad1565b5b60405190808252806020026020018201604052801561142d5781602001602082028036833780820191505090505b5090506040518060e001604052808381526020013373ffffffffffffffffffffffffffffffffffffffff1681526020018681526020018581526020018481526020014281526020018281525060075f8481526020019081526020015f205f820151815f01556020820151816001015f6101000a81548173ffffffffffffffffffffffffffffffffffffffff021916908373ffffffffffffffffffffffffffffffffffffffff16021790555060408201518160020155606082015181600301556080820151816004019081611501919061369b565b5060a0820151816005015560c08201518160060190805190602001906115289291906124d1565b509050505f60085f8481526020019081526020015f205f6101000a81548160ff0219169083600481111561155f5761155e6129d7565b5b021790555061156e3383611b1b565b3373ffffffffffffffffffffffffffffffffffffffff16827f60d658bf0002e1b552459902f2664f03fcd916bfb98b69a823d3334bbad143e760405160405180910390a35050505050565b5f7f01ffc9a7000000000000000000000000000000000000000000000000000000007bffffffffffffffffffffffffffffffffffffffffffffffffffffffff1916827bffffffffffffffffffffffffffffffffffffffffffffffffffffffff1916149050919050565b5f73ffffffffffffffffffffffffffffffffffffffff168273ffffffffffffffffffffffffffffffffffffffff1603611692575f6040517f64a0ae920000000000000000000000000000000000000000000000000000000081526004016116899190612799565b60405180910390fd5b5f61169e83835f611b38565b90505f73ffffffffffffffffffffffffffffffffffffffff168173ffffffffffffffffffffffffffffffffffffffff160361171057816040517f7e27328900000000000000000000000000000000000000000000000000000000815260040161170791906128a4565b60405180910390fd5b8373ffffffffffffffffffffffffffffffffffffffff168173ffffffffffffffffffffffffffffffffffffffff1614611784578382826040517f64283d7b00000000000000000000000000000000000000000000000000000000815260040161177b9392919061376a565b60405180910390fd5b50505050565b5f5f61179583611d43565b90505f73ffffffffffffffffffffffffffffffffffffffff168173ffffffffffffffffffffffffffffffffffffffff160361180757826040517f7e2732890000000000000000000000000000000000000000000000000000000081526004016117fe91906128a4565b60405180910390fd5b80915050919050565b5f60045f8381526020019081526020015f205f9054906101000a900473ffffffffffffffffffffffffffffffffffffffff169050919050565b5f33905090565b61185d8383836001611d7c565b505050565b5f73ffffffffffffffffffffffffffffffffffffffff168373ffffffffffffffffffffffffffffffffffffffff16036118d2575f6040517fa9fbf51f0000000000000000000000000000000000000000000000000000000081526004016118c99190612799565b60405180910390fd5b5f73ffffffffffffffffffffffffffffffffffffffff168273ffffffffffffffffffffffffffffffffffffffff160361194257816040517f5b08ba180000000000000000000000000000000000000000000000000000000081526004016119399190612799565b60405180910390fd5b8060055f8573ffffffffffffffffffffffffffffffffffffffff1673ffffffffffffffffffffffffffffffffffffffff1681526020019081526020015f205f8473ffffffffffffffffffffffffffffffffffffffff1673ffffffffffffffffffffffffffffffffffffffff1681526020019081526020015f205f6101000a81548160ff0219169083151502179055508173ffffffffffffffffffffffffffffffffffffffff168373ffffffffffffffffffffffffffffffffffffffff167f17307eab39ab6107e8899845ad3d59bd9653f200f220920489ca2b5937696c3183604051611a2e91906125e2565b60405180910390a3505050565b606060405180602001604052805f815250905090565b60605f6001611a5f84611f3b565b0190505f8167ffffffffffffffff811115611a7d57611a7c612ad1565b5b6040519080825280601f01601f191660200182016040528015611aaf5781602001600182028036833780820191505090505b5090505f82602083010190505b600115611b10578080600190039150507f3031323334353637383961626364656600000000000000000000000000000000600a86061a8153600a8581611b0557611b0461379f565b5b0494505f8503611abc575b819350505050919050565b611b34828260405180602001604052805f81525061208c565b5050565b5f5f611b4384611d43565b90505f73ffffffffffffffffffffffffffffffffffffffff168373ffffffffffffffffffffffffffffffffffffffff1614611b8457611b838184866120af565b5b5f73ffffffffffffffffffffffffffffffffffffffff168173ffffffffffffffffffffffffffffffffffffffff1614611c0f57611bc35f855f5f611d7c565b600160035f8373ffffffffffffffffffffffffffffffffffffffff1673ffffffffffffffffffffffffffffffffffffffff1681526020019081526020015f205f82825403925050819055505b5f73ffffffffffffffffffffffffffffffffffffffff168573ffffffffffffffffffffffffffffffffffffffff1614611c8e57600160035f8773ffffffffffffffffffffffffffffffffffffffff1673ffffffffffffffffffffffffffffffffffffffff1681526020019081526020015f205f82825401925050819055505b8460025f8681526020019081526020015f205f6101000a81548173ffffffffffffffffffffffffffffffffffffffff021916908373ffffffffffffffffffffffffffffffffffffffff160217905550838573ffffffffffffffffffffffffffffffffffffffff168273ffffffffffffffffffffffffffffffffffffffff167fddf252ad1be2c89b69c2b068fc378daa952ba7f163c4a11628f55a4df523b3ef60405160405180910390a4809150509392505050565b5f60025f8381526020019081526020015f205f9054906101000a900473ffffffffffffffffffffffffffffffffffffffff169050919050565b8080611db457505f73ffffffffffffffffffffffffffffffffffffffff168273ffffffffffffffffffffffffffffffffffffffff1614155b15611ee6575f611dc38461178a565b90505f73ffffffffffffffffffffffffffffffffffffffff168373ffffffffffffffffffffffffffffffffffffffff1614158015611e2d57508273ffffffffffffffffffffffffffffffffffffffff168173ffffffffffffffffffffffffffffffffffffffff1614155b8015611e405750611e3e8184611169565b155b15611e8257826040517fa9fbf51f000000000000000000000000000000000000000000000000000000008152600401611e799190612799565b60405180910390fd5b8115611ee457838573ffffffffffffffffffffffffffffffffffffffff168273ffffffffffffffffffffffffffffffffffffffff167f8c5be1e5ebec7d5bd14f71427d1e84f3dd0314c0f7b2291e5b200ac8c7c3b92560405160405180910390a45b505b8360045f8581526020019081526020015f205f6101000a81548173ffffffffffffffffffffffffffffffffffffffff021916908373ffffffffffffffffffffffffffffffffffffffff16021790555050505050565b5f5f5f90507a184f03e93ff9f4daa797ed6e38ed64bf6a1f0100000000000000008310611f97577a184f03e93ff9f4daa797ed6e38ed64bf6a1f0100000000000000008381611f8d57611f8c61379f565b5b0492506040810190505b6d04ee2d6d415b85acef81000000008310611fd4576d04ee2d6d415b85acef81000000008381611fca57611fc961379f565b5b0492506020810190505b662386f26fc10000831061200357662386f26fc100008381611ff957611ff861379f565b5b0492506010810190505b6305f5e100831061202c576305f5e10083816120225761202161379f565b5b0492506008810190505b61271083106120515761271083816120475761204661379f565b5b0492506004810190505b60648310612074576064838161206a5761206961379f565b5b0492506002810190505b600a8310612083576001810190505b80915050919050565b6120968383612172565b6120aa6120a1611849565b5f858585612265565b505050565b6120ba838383612411565b61216d575f73ffffffffffffffffffffffffffffffffffffffff168373ffffffffffffffffffffffffffffffffffffffff160361212e57806040517f7e27328900000000000000000000000000000000000000000000000000000000815260040161212591906128a4565b60405180910390fd5b81816040517f177e802f0000000000000000000000000000000000000000000000000000000081526004016121649291906137cc565b60405180910390fd5b505050565b5f73ffffffffffffffffffffffffffffffffffffffff168273ffffffffffffffffffffffffffffffffffffffff16036121e2575f6040517f64a0ae920000000000000000000000000000000000000000000000000000000081526004016121d99190612799565b60405180910390fd5b5f6121ee83835f611b38565b90505f73ffffffffffffffffffffffffffffffffffffffff168173ffffffffffffffffffffffffffffffffffffffff1614612260575f6040517f73c6ac6e0000000000000000000000000000000000000000000000000000000081526004016122579190612799565b60405180910390fd5b505050565b5f8373ffffffffffffffffffffffffffffffffffffffff163b111561240a578273ffffffffffffffffffffffffffffffffffffffff1663150b7a02868685856040518563ffffffff1660e01b81526004016122c39493929190613845565b6020604051808303815f875af19250505080156122fe57506040513d601f19601f820116820180604052508101906122fb91906138a3565b60015b61237f573d805f811461232c576040519150601f19603f3d011682016040523d82523d5f602084013e612331565b606091505b505f81510361237757836040517f64a0ae9200000000000000000000000000000000000000000000000000000000815260040161236e9190612799565b60405180910390fd5b805160208201fd5b63150b7a0260e01b7bffffffffffffffffffffffffffffffffffffffffffffffffffffffff1916817bffffffffffffffffffffffffffffffffffffffffffffffffffffffff19161461240857836040517f64a0ae920000000000000000000000000000000000000000000000000000000081526004016123ff9190612799565b60405180910390fd5b505b5050505050565b5f5f73ffffffffffffffffffffffffffffffffffffffff168373ffffffffffffffffffffffffffffffffffffffff16141580156124c857508273ffffffffffffffffffffffffffffffffffffffff168473ffffffffffffffffffffffffffffffffffffffff16148061248957506124888484611169565b5b806124c757508273ffffffffffffffffffffffffffffffffffffffff166124af83611810565b73ffffffffffffffffffffffffffffffffffffffff16145b5b90509392505050565b828054828255905f5260205f2090810192821561250b579160200282015b8281111561250a5782518255916020019190600101906124ef565b5b509050612518919061251c565b5090565b5b80821115612533575f815f90555060010161251d565b5090565b5f604051905090565b5f5ffd5b5f5ffd5b5f7fffffffff0000000000000000000000000000000000000000000000000000000082169050919050565b61257c81612548565b8114612586575f5ffd5b50565b5f8135905061259781612573565b92915050565b5f602082840312156125b2576125b1612540565b5b5f6125bf84828501612589565b91505092915050565b5f8115159050919050565b6125dc816125c8565b82525050565b5f6020820190506125f55f8301846125d3565b92915050565b5f819050919050565b61260d816125fb565b8114612617575f5ffd5b50565b5f8135905061262881612604565b92915050565b5f819050919050565b6126408161262e565b811461264a575f5ffd5b50565b5f8135905061265b81612637565b92915050565b5f5f6040838503121561267757612676612540565b5b5f6126848582860161261a565b92505060206126958582860161264d565b9150509250929050565b5f81519050919050565b5f82825260208201905092915050565b8281835e5f83830152505050565b5f601f19601f8301169050919050565b5f6126e18261269f565b6126eb81856126a9565b93506126fb8185602086016126b9565b612704816126c7565b840191505092915050565b5f6020820190508181035f83015261272781846126d7565b905092915050565b5f6020828403121561274457612743612540565b5b5f6127518482850161261a565b91505092915050565b5f73ffffffffffffffffffffffffffffffffffffffff82169050919050565b5f6127838261275a565b9050919050565b61279381612779565b82525050565b5f6020820190506127ac5f83018461278a565b92915050565b6127bb81612779565b81146127c5575f5ffd5b50565b5f813590506127d6816127b2565b92915050565b5f5f604083850312156127f2576127f1612540565b5b5f6127ff858286016127c8565b92505060206128108582860161261a565b9150509250929050565b5f5f5f6060848603121561283157612830612540565b5b5f61283e868287016127c8565b935050602061284f868287016127c8565b92505060406128608682870161261a565b9150509250925092565b5f6020828403121561287f5761287e612540565b5b5f61288c848285016127c8565b91505092915050565b61289e816125fb565b82525050565b5f6020820190506128b75f830184612895565b92915050565b5f819050919050565b5f6128e06128db6128d68461275a565b6128bd565b61275a565b9050919050565b5f6128f1826128c6565b9050919050565b5f612902826128e7565b9050919050565b612912816128f8565b82525050565b5f60208201905061292b5f830184612909565b92915050565b5f5f6040838503121561294757612946612540565b5b5f6129548582860161261a565b9250506020612965858286016127c8565b9150509250929050565b612978816125c8565b8114612982575f5ffd5b50565b5f813590506129938161296f565b92915050565b5f5f604083850312156129af576129ae612540565b5b5f6129bc858286016127c8565b92505060206129cd85828601612985565b9150509250929050565b7f4e487b71000000000000000000000000000000000000000000000000000000005f52602160045260245ffd5b60058110612a1557612a146129d7565b5b50565b5f819050612a2582612a04565b919050565b5f612a3482612a18565b9050919050565b612a4481612a2a565b82525050565b5f602082019050612a5d5f830184612a3b565b92915050565b5f60c082019050612a765f830189612895565b612a83602083018861278a565b612a906040830187612895565b612a9d6060830186612895565b8181036080830152612aaf81856126d7565b9050612abe60a0830184612895565b979650505050505050565b5f5ffd5b5f5ffd5b7f4e487b71000000000000000000000000000000000000000000000000000000005f52604160045260245ffd5b612b07826126c7565b810181811067ffffffffffffffff82111715612b2657612b25612ad1565b5b80604052505050565b5f612b38612537565b9050612b448282612afe565b919050565b5f67ffffffffffffffff821115612b6357612b62612ad1565b5b612b6c826126c7565b9050602081019050919050565b828183375f83830152505050565b5f612b99612b9484612b49565b612b2f565b905082815260208101848484011115612bb557612bb4612acd565b5b612bc0848285612b79565b509392505050565b5f82601f830112612bdc57612bdb612ac9565b5b8135612bec848260208601612b87565b91505092915050565b5f5f5f5f60808587031215612c0d57612c0c612540565b5b5f612c1a878288016127c8565b9450506020612c2b878288016127c8565b9350506040612c3c8782880161261a565b925050606085013567ffffffffffffffff811115612c5d57612c5c612544565b5b612c6987828801612bc8565b91505092959194509250565b5f5f60408385031215612c8b57612c8a612540565b5b5f612c98858286016127c8565b9250506020612ca9858286016127c8565b9150509250929050565b5f67ffffffffffffffff821115612ccd57612ccc612ad1565b5b612cd6826126c7565b9050602081019050919050565b5f612cf5612cf084612cb3565b612b2f565b905082815260208101848484011115612d1157612d10612acd565b5b612d1c848285612b79565b509392505050565b5f82601f830112612d3857612d37612ac9565b5b8135612d48848260208601612ce3565b91505092915050565b5f5f5f60608486031215612d6857612d67612540565b5b5f612d758682870161261a565b9350506020612d868682870161261a565b925050604084013567ffffffffffffffff811115612da757612da6612544565b5b612db386828701612d24565b9150509250925092565b7f50726f6475636542617463683a20596f7520617265206e6f74207468652070655f8201527f6e64696e67207265636569766572000000000000000000000000000000000000602082015250565b5f612e17602e836126a9565b9150612e2282612dbd565b604082019050919050565b5f6020820190508181035f830152612e4481612e0b565b9050919050565b60048110612e57575f5ffd5b50565b5f81519050612e6881612e4b565b92915050565b5f60208284031215612e8357612e82612540565b5b5f612e9084828501612e5a565b91505092915050565b7f4e487b71000000000000000000000000000000000000000000000000000000005f52602260045260245ffd5b5f6002820490506001821680612edd57607f821691505b602082108103612ef057612eef612e99565b5b50919050565b7f50726f6475636542617463683a205374616e64617264207472616e73666572735f8201527f20626c6f636b65642e20557365207472616e73666572437573746f647920616e60208201527f6420616363657074437573746f64790000000000000000000000000000000000604082015250565b5f612f76604f836126a9565b9150612f8182612ef6565b606082019050919050565b5f6020820190508181035f830152612fa381612f6a565b9050919050565b7f50726f6475636542617463683a204e6f7420746865206f776e657200000000005f82015250565b5f612fde601b836126a9565b9150612fe982612faa565b602082019050919050565b5f6020820190508181035f83015261300b81612fd2565b9050919050565b7f50726f6475636542617463683a204f6e6c792072657461696c6572732063616e5f8201527f2073656c6c000000000000000000000000000000000000000000000000000000602082015250565b5f61306c6025836126a9565b915061307782613012565b604082019050919050565b5f6020820190508181035f83015261309981613060565b9050919050565b7f50726f6475636542617463683a204e6f742074686520746f6b656e206f776e655f8201527f7200000000000000000000000000000000000000000000000000000000000000602082015250565b5f6130fa6021836126a9565b9150613105826130a0565b604082019050919050565b5f6020820190508181035f830152613127816130ee565b9050919050565b5f8151905061313c8161296f565b92915050565b5f6020828403121561315757613156612540565b5b5f6131648482850161312e565b91505092915050565b7f50726f6475636542617463683a205265636569766572206973206e6f742061205f8201527f7665726966696564207061727469636970616e74000000000000000000000000602082015250565b5f6131c76034836126a9565b91506131d28261316d565b604082019050919050565b5f6020820190508181035f8301526131f4816131bb565b9050919050565b7f50726f6475636542617463683a20426174636820616c726561647920736f6c645f82015250565b5f61322f6020836126a9565b915061323a826131fb565b602082019050919050565b5f6020820190508181035f83015261325c81613223565b9050919050565b7f50726f6475636542617463683a205374616e6461726420736166655472616e735f8201527f6665727320626c6f636b65642e20557365207472616e73666572437573746f6460208201527f7920616e6420616363657074437573746f647900000000000000000000000000604082015250565b5f6132e36053836126a9565b91506132ee82613263565b606082019050919050565b5f6020820190508181035f830152613310816132d7565b9050919050565b5f81905092915050565b5f61332b8261269f565b6133358185613317565b93506133458185602086016126b9565b80840191505092915050565b5f61335c8285613321565b91506133688284613321565b91508190509392505050565b7f50726f6475636542617463683a204f6e6c7920766572696669656420706172745f8201527f69636970616e74732063616e206d696e74000000000000000000000000000000602082015250565b5f6133ce6031836126a9565b91506133d982613374565b604082019050919050565b5f6020820190508181035f8301526133fb816133c2565b9050919050565b7f50726f6475636542617463683a204f6e6c79204641524d4552732063616e206d5f8201527f696e740000000000000000000000000000000000000000000000000000000000602082015250565b5f61345c6023836126a9565b915061346782613402565b604082019050919050565b5f6020820190508181035f83015261348981613450565b9050919050565b7f4e487b71000000000000000000000000000000000000000000000000000000005f52601160045260245ffd5b5f6134c7826125fb565b91507fffffffffffffffffffffffffffffffffffffffffffffffffffffffffffffffff82036134f9576134f8613490565b5b600182019050919050565b5f819050815f5260205f209050919050565b5f6020601f8301049050919050565b5f82821b905092915050565b5f600883026135607fffffffffffffffffffffffffffffffffffffffffffffffffffffffffffffffff82613525565b61356a8683613525565b95508019841693508086168417925050509392505050565b5f61359c613597613592846125fb565b6128bd565b6125fb565b9050919050565b5f819050919050565b6135b583613582565b6135c96135c1826135a3565b848454613531565b825550505050565b5f5f905090565b6135e06135d1565b6135eb8184846135ac565b505050565b5b8181101561360e576136035f826135d8565b6001810190506135f1565b5050565b601f8211156136535761362481613504565b61362d84613516565b8101602085101561363c578190505b61365061364885613516565b8301826135f0565b50505b505050565b5f82821c905092915050565b5f6136735f1984600802613658565b1980831691505092915050565b5f61368b8383613664565b9150826002028217905092915050565b6136a48261269f565b67ffffffffffffffff8111156136bd576136bc612ad1565b5b6136c78254612ec6565b6136d2828285613612565b5f60209050601f831160018114613703575f84156136f1578287015190505b6136fb8582613680565b865550613762565b601f19841661371186613504565b5f5b8281101561373857848901518255600182019150602085019450602081019050613713565b868310156137555784890151613751601f891682613664565b8355505b6001600288020188555050505b505050505050565b5f60608201905061377d5f83018661278a565b61378a6020830185612895565b613797604083018461278a565b949350505050565b7f4e487b71000000000000000000000000000000000000000000000000000000005f52601260045260245ffd5b5f6040820190506137df5f83018561278a565b6137ec6020830184612895565b9392505050565b5f81519050919050565b5f82825260208201905092915050565b5f613817826137f3565b61382181856137fd565b93506138318185602086016126b9565b61383a816126c7565b840191505092915050565b5f6080820190506138585f83018761278a565b613865602083018661278a565b6138726040830185612895565b8181036060830152613884818461380d565b905095945050505050565b5f8151905061389d81612573565b92915050565b5f602082840312156138b8576138b7612540565b5b5f6138c58482850161388f565b9150509291505056fea2646970667358221220d2d227d86ec757f0af80accf110661a07e598f523bb8273fa22de490ffcedcb464736f6c634300081c0033",
  "linkReferences": {},
  "deployedLinkReferences": {}
}